{
  "contractName": "RewardSystem",
  "abi": [
    {
      "inputs": [
        {
          "internalType": "contract RewardToken",
          "name": "_token",
          "type": "address"
        }
      ],
      "stateMutability": "nonpayable",
      "type": "constructor"
    },
    {
      "anonymous": false,
      "inputs": [
        {
          "indexed": true,
          "internalType": "address",
          "name": "user",
          "type": "address"
        },
        {
          "indexed": false,
          "internalType": "uint256",
          "name": "amount",
          "type": "uint256"
        }
      ],
      "name": "TokensEarned",
      "type": "event"
    },
    {
      "anonymous": false,
      "inputs": [
        {
          "indexed": true,
          "internalType": "address",
          "name": "user",
          "type": "address"
        },
        {
          "indexed": false,
          "internalType": "uint256",
          "name": "amount",
          "type": "uint256"
        },
        {
          "indexed": false,
          "internalType": "string",
          "name": "reward",
          "type": "string"
        }
      ],
      "name": "TokensRedeemed",
      "type": "event"
    },
    {
      "inputs": [
        {
          "internalType": "address",
          "name": "",
          "type": "address"
        }
      ],
      "name": "users",
      "outputs": [
        {
          "internalType": "address",
          "name": "wallet",
          "type": "address"
        },
        {
          "internalType": "uint256",
          "name": "totalEarned",
          "type": "uint256"
        },
        {
          "internalType": "uint256",
          "name": "totalRedeemed",
          "type": "uint256"
        }
      ],
      "stateMutability": "view",
      "type": "function"
    },
    {
      "inputs": [
        {
          "internalType": "address",
          "name": "_user",
          "type": "address"
        }
      ],
      "name": "registerUser",
      "outputs": [],
      "stateMutability": "nonpayable",
      "type": "function"
    },
    {
      "inputs": [
        {
          "internalType": "address",
          "name": "_user",
          "type": "address"
        },
        {
          "internalType": "uint256",
          "name": "_amount",
          "type": "uint256"
        }
      ],
      "name": "earnTokens",
      "outputs": [],
      "stateMutability": "nonpayable",
      "type": "function"
    },
    {
      "inputs": [
        {
          "internalType": "address",
          "name": "_user",
          "type": "address"
        },
        {
          "internalType": "uint256",
          "name": "_amount",
          "type": "uint256"
        },
        {
          "internalType": "string",
          "name": "_reward",
          "type": "string"
        }
      ],
      "name": "redeemTokens",
      "outputs": [],
      "stateMutability": "nonpayable",
      "type": "function"
    },
    {
      "inputs": [
        {
          "internalType": "address",
          "name": "_user",
          "type": "address"
        }
      ],
      "name": "getUserActivities",
      "outputs": [
        {
          "internalType": "uint256[]",
          "name": "",
          "type": "uint256[]"
        }
      ],
      "stateMutability": "view",
      "type": "function"
    }
  ],
  "bytecode": "0x608060405234801562000010575f80fd5b506040516200138238038062001382833981810160405281019062000036919062000134565b805f806101000a81548173ffffffffffffffffffffffffffffffffffffffff021916908373ffffffffffffffffffffffffffffffffffffffff1602179055503360015f6101000a81548173ffffffffffffffffffffffffffffffffffffffff021916908373ffffffffffffffffffffffffffffffffffffffff1602179055505062000164565b5f80fd5b5f73ffffffffffffffffffffffffffffffffffffffff82169050919050565b5f620000eb82620000c0565b9050919050565b5f620000fe82620000df565b9050919050565b6200011081620000f2565b81146200011b575f80fd5b50565b5f815190506200012e8162000105565b92915050565b5f602082840312156200014c576200014b620000bc565b5b5f6200015b848285016200011e565b91505092915050565b61121080620001725f395ff3fe608060405234801561000f575f80fd5b5060043610610055575f3560e01c80632199d5cd14610059578063562cb2c214610075578063a87430ba14610091578063b42696c8146100c3578063e4952f6b146100f3575b5f80fd5b610073600480360381019061006e9190610aff565b61010f565b005b61008f600480360381019061008a9190610b5d565b6102d5565b005b6100ab60048036038101906100a69190610aff565b6105d7565b6040516100ba93929190610bb9565b60405180910390f35b6100dd60048036038101906100d89190610aff565b61061c565b6040516100ea9190610ca5565b60405180910390f35b61010d60048036038101906101089190610e01565b6106b2565b005b60015f9054906101000a900473ffffffffffffffffffffffffffffffffffffffff1673ffffffffffffffffffffffffffffffffffffffff163373ffffffffffffffffffffffffffffffffffffffff161461019e576040517f08c379a000000000000000000000000000000000000000000000000000000000815260040161019590610ec7565b60405180910390fd5b60405180608001604052808273ffffffffffffffffffffffffffffffffffffffff1681526020015f81526020015f81526020015f67ffffffffffffffff8111156101eb576101ea610cdd565b5b6040519080825280602002602001820160405280156102195781602001602082028036833780820191505090505b5081525060025f8373ffffffffffffffffffffffffffffffffffffffff1673ffffffffffffffffffffffffffffffffffffffff1681526020019081526020015f205f820151815f015f6101000a81548173ffffffffffffffffffffffffffffffffffffffff021916908373ffffffffffffffffffffffffffffffffffffffff160217905550602082015181600101556040820151816002015560608201518160030190805190602001906102ce929190610a2e565b5090505050565b60015f9054906101000a900473ffffffffffffffffffffffffffffffffffffffff1673ffffffffffffffffffffffffffffffffffffffff163373ffffffffffffffffffffffffffffffffffffffff1614610364576040517f08c379a000000000000000000000000000000000000000000000000000000000815260040161035b90610ec7565b60405180910390fd5b5f73ffffffffffffffffffffffffffffffffffffffff1660025f8473ffffffffffffffffffffffffffffffffffffffff1673ffffffffffffffffffffffffffffffffffffffff1681526020019081526020015f205f015f9054906101000a900473ffffffffffffffffffffffffffffffffffffffff1673ffffffffffffffffffffffffffffffffffffffff1603610430576040517f08c379a000000000000000000000000000000000000000000000000000000000815260040161042790610f2f565b60405180910390fd5b5f8054906101000a900473ffffffffffffffffffffffffffffffffffffffff1673ffffffffffffffffffffffffffffffffffffffff1663a9059cbb83836040518363ffffffff1660e01b815260040161048a929190610f4d565b6020604051808303815f875af11580156104a6573d5f803e3d5ffd5b505050506040513d601f19601f820116820180604052508101906104ca9190610fa9565b508060025f8473ffffffffffffffffffffffffffffffffffffffff1673ffffffffffffffffffffffffffffffffffffffff1681526020019081526020015f206001015f82825461051a9190611001565b9250508190555060025f8373ffffffffffffffffffffffffffffffffffffffff1673ffffffffffffffffffffffffffffffffffffffff1681526020019081526020015f2060030181908060018154018082558091505060019003905f5260205f20015f90919091909150558173ffffffffffffffffffffffffffffffffffffffff167f949b66d6baaf4912605d046be8fef8d8dac6040bb52018e69a7a805279fbeb15826040516105cb9190611034565b60405180910390a25050565b6002602052805f5260405f205f91509050805f015f9054906101000a900473ffffffffffffffffffffffffffffffffffffffff16908060010154908060020154905083565b606060025f8373ffffffffffffffffffffffffffffffffffffffff1673ffffffffffffffffffffffffffffffffffffffff1681526020019081526020015f206003018054806020026020016040519081016040528092919081815260200182805480156106a657602002820191905f5260205f20905b815481526020019060010190808311610692575b50505050509050919050565b60015f9054906101000a900473ffffffffffffffffffffffffffffffffffffffff1673ffffffffffffffffffffffffffffffffffffffff163373ffffffffffffffffffffffffffffffffffffffff1614610741576040517f08c379a000000000000000000000000000000000000000000000000000000000815260040161073890610ec7565b60405180910390fd5b5f73ffffffffffffffffffffffffffffffffffffffff1660025f8573ffffffffffffffffffffffffffffffffffffffff1673ffffffffffffffffffffffffffffffffffffffff1681526020019081526020015f205f015f9054906101000a900473ffffffffffffffffffffffffffffffffffffffff1673ffffffffffffffffffffffffffffffffffffffff160361080d576040517f08c379a000000000000000000000000000000000000000000000000000000000815260040161080490610f2f565b60405180910390fd5b815f8054906101000a900473ffffffffffffffffffffffffffffffffffffffff1673ffffffffffffffffffffffffffffffffffffffff166370a08231856040518263ffffffff1660e01b8152600401610866919061104d565b602060405180830381865afa158015610881573d5f803e3d5ffd5b505050506040513d601f19601f820116820180604052508101906108a5919061107a565b10156108e6576040517f08c379a00000000000000000000000000000000000000000000000000000000081526004016108dd906110ef565b60405180910390fd5b5f8054906101000a900473ffffffffffffffffffffffffffffffffffffffff1673ffffffffffffffffffffffffffffffffffffffff166323b872dd8430856040518463ffffffff1660e01b81526004016109429392919061110d565b6020604051808303815f875af115801561095e573d5f803e3d5ffd5b505050506040513d601f19601f820116820180604052508101906109829190610fa9565b508160025f8573ffffffffffffffffffffffffffffffffffffffff1673ffffffffffffffffffffffffffffffffffffffff1681526020019081526020015f206002015f8282546109d29190611001565b925050819055508273ffffffffffffffffffffffffffffffffffffffff167f840b44fdbcb5cc554d649d4eff35e951766f31d646497b364a9cd6d6677d3e148383604051610a219291906111ac565b60405180910390a2505050565b828054828255905f5260205f20908101928215610a68579160200282015b82811115610a67578251825591602001919060010190610a4c565b5b509050610a759190610a79565b5090565b5b80821115610a90575f815f905550600101610a7a565b5090565b5f604051905090565b5f80fd5b5f80fd5b5f73ffffffffffffffffffffffffffffffffffffffff82169050919050565b5f610ace82610aa5565b9050919050565b610ade81610ac4565b8114610ae8575f80fd5b50565b5f81359050610af981610ad5565b92915050565b5f60208284031215610b1457610b13610a9d565b5b5f610b2184828501610aeb565b91505092915050565b5f819050919050565b610b3c81610b2a565b8114610b46575f80fd5b50565b5f81359050610b5781610b33565b92915050565b5f8060408385031215610b7357610b72610a9d565b5b5f610b8085828601610aeb565b9250506020610b9185828601610b49565b9150509250929050565b610ba481610ac4565b82525050565b610bb381610b2a565b82525050565b5f606082019050610bcc5f830186610b9b565b610bd96020830185610baa565b610be66040830184610baa565b949350505050565b5f81519050919050565b5f82825260208201905092915050565b5f819050602082019050919050565b610c2081610b2a565b82525050565b5f610c318383610c17565b60208301905092915050565b5f602082019050919050565b5f610c5382610bee565b610c5d8185610bf8565b9350610c6883610c08565b805f5b83811015610c98578151610c7f8882610c26565b9750610c8a83610c3d565b925050600181019050610c6b565b5085935050505092915050565b5f6020820190508181035f830152610cbd8184610c49565b905092915050565b5f80fd5b5f80fd5b5f601f19601f8301169050919050565b7f4e487b71000000000000000000000000000000000000000000000000000000005f52604160045260245ffd5b610d1382610ccd565b810181811067ffffffffffffffff82111715610d3257610d31610cdd565b5b80604052505050565b5f610d44610a94565b9050610d508282610d0a565b919050565b5f67ffffffffffffffff821115610d6f57610d6e610cdd565b5b610d7882610ccd565b9050602081019050919050565b828183375f83830152505050565b5f610da5610da084610d55565b610d3b565b905082815260208101848484011115610dc157610dc0610cc9565b5b610dcc848285610d85565b509392505050565b5f82601f830112610de857610de7610cc5565b5b8135610df8848260208601610d93565b91505092915050565b5f805f60608486031215610e1857610e17610a9d565b5b5f610e2586828701610aeb565b9350506020610e3686828701610b49565b925050604084013567ffffffffffffffff811115610e5757610e56610aa1565b5b610e6386828701610dd4565b9150509250925092565b5f82825260208201905092915050565b7f4e6f7420617574686f72697a65640000000000000000000000000000000000005f82015250565b5f610eb1600e83610e6d565b9150610ebc82610e7d565b602082019050919050565b5f6020820190508181035f830152610ede81610ea5565b9050919050565b7f55736572206e6f742072656769737465726564000000000000000000000000005f82015250565b5f610f19601383610e6d565b9150610f2482610ee5565b602082019050919050565b5f6020820190508181035f830152610f4681610f0d565b9050919050565b5f604082019050610f605f830185610b9b565b610f6d6020830184610baa565b9392505050565b5f8115159050919050565b610f8881610f74565b8114610f92575f80fd5b50565b5f81519050610fa381610f7f565b92915050565b5f60208284031215610fbe57610fbd610a9d565b5b5f610fcb84828501610f95565b91505092915050565b7f4e487b71000000000000000000000000000000000000000000000000000000005f52601160045260245ffd5b5f61100b82610b2a565b915061101683610b2a565b925082820190508082111561102e5761102d610fd4565b5b92915050565b5f6020820190506110475f830184610baa565b92915050565b5f6020820190506110605f830184610b9b565b92915050565b5f8151905061107481610b33565b92915050565b5f6020828403121561108f5761108e610a9d565b5b5f61109c84828501611066565b91505092915050565b7f496e73756666696369656e742062616c616e63650000000000000000000000005f82015250565b5f6110d9601483610e6d565b91506110e4826110a5565b602082019050919050565b5f6020820190508181035f830152611106816110cd565b9050919050565b5f6060820190506111205f830186610b9b565b61112d6020830185610b9b565b61113a6040830184610baa565b949350505050565b5f81519050919050565b5f5b8381101561116957808201518184015260208101905061114e565b5f8484015250505050565b5f61117e82611142565b6111888185610e6d565b935061119881856020860161114c565b6111a181610ccd565b840191505092915050565b5f6040820190506111bf5f830185610baa565b81810360208301526111d18184611174565b9050939250505056fea26469706673582212201724aed095bd795705640a07efccca861b6e2f0344c8100a811361dd852264ec64736f6c63430008150033",
  "immutableReferences": {},
  "source": "// SPDX-License-Identifier: MIT\r\npragma solidity ^0.8.0;\r\n\r\nimport \"./RewardToken.sol\";\r\n\r\ncontract RewardSystem {\r\n    RewardToken private token;\r\n    address private owner;\r\n\r\n    struct User {\r\n        address wallet;\r\n        uint256 totalEarned;\r\n        uint256 totalRedeemed;\r\n        uint256[] activities;\r\n    }\r\n\r\n    mapping(address => User) public users;\r\n\r\n    event TokensEarned(address indexed user, uint256 amount);\r\n    event TokensRedeemed(address indexed user, uint256 amount, string reward);\r\n\r\n    constructor(RewardToken _token) {\r\n        token = _token;\r\n        owner = msg.sender;\r\n    }\r\n\r\n    modifier onlyOwner() {\r\n        require(msg.sender == owner, \"Not authorized\");\r\n        _;\r\n    }\r\n\r\n    function registerUser(address _user) public onlyOwner {\r\n        users[_user] = User(_user, 0, 0, new uint256[](0));\r\n    }\r\n\r\n    function earnTokens(address _user, uint256 _amount) public onlyOwner {\r\n        require(users[_user].wallet != address(0), \"User not registered\");\r\n        token.transfer(_user, _amount);\r\n        users[_user].totalEarned += _amount;\r\n        users[_user].activities.push(_amount);\r\n        emit TokensEarned(_user, _amount);\r\n    }\r\n\r\n    function redeemTokens(address _user, uint256 _amount, string memory _reward) public onlyOwner {\r\n        require(users[_user].wallet != address(0), \"User not registered\");\r\n        require(token.balanceOf(_user) >= _amount, \"Insufficient balance\");\r\n        token.transferFrom(_user, address(this), _amount);\r\n        users[_user].totalRedeemed += _amount;\r\n        emit TokensRedeemed(_user, _amount, _reward);\r\n    }\r\n\r\n    function getUserActivities(address _user) public view returns (uint256[] memory) {\r\n        return users[_user].activities;\r\n    }\r\n}\r\n",
  "sourcePath": "C:\\Users\\Admin\\Desktop\\token-rewards\\contracts\\RewardSystem.sol",
  "compiler": {
    "name": "solc",
    "version": "0.8.21+commit.d9974bed.Emscripten.clang"
  },
  "schemaVersion": "3.4.16",
  "updatedAt": "2024-07-22T15:08:27.599Z",
  "devdoc": {
    "kind": "dev",
    "methods": {},
    "version": 1
  },
  "userdoc": {
    "kind": "user",
    "methods": {},
    "version": 1
  }
}